{
  "_format": "hh-sol-artifact-1",
  "contractName": "Room",
  "sourceName": "contracts/Room.sol",
  "abi": [
    {
      "inputs": [
        {
          "internalType": "contract IERC20",
          "name": "_token",
          "type": "address"
        },
        {
          "internalType": "address",
          "name": "_receptionist",
          "type": "address"
        }
      ],
      "stateMutability": "nonpayable",
      "type": "constructor"
    },
    {
      "inputs": [],
      "name": "baseAmount",
      "outputs": [
        {
          "internalType": "uint256",
          "name": "",
          "type": "uint256"
        }
      ],
      "stateMutability": "view",
      "type": "function"
    },
    {
      "inputs": [
        {
          "internalType": "address",
          "name": "_winner",
          "type": "address"
        }
      ],
      "name": "decideWinner",
      "outputs": [],
      "stateMutability": "nonpayable",
      "type": "function"
    },
    {
      "inputs": [],
      "name": "end",
      "outputs": [
        {
          "internalType": "bool",
          "name": "",
          "type": "bool"
        }
      ],
      "stateMutability": "view",
      "type": "function"
    },
    {
      "inputs": [],
      "name": "formatRoom",
      "outputs": [],
      "stateMutability": "nonpayable",
      "type": "function"
    },
    {
      "inputs": [],
      "name": "info",
      "outputs": [
        {
          "internalType": "address",
          "name": "player0",
          "type": "address"
        },
        {
          "internalType": "address",
          "name": "player1",
          "type": "address"
        },
        {
          "internalType": "uint256",
          "name": "baseAmount",
          "type": "uint256"
        },
        {
          "internalType": "uint256",
          "name": "rate",
          "type": "uint256"
        }
      ],
      "stateMutability": "view",
      "type": "function"
    },
    {
      "inputs": [
        {
          "internalType": "address",
          "name": "_player0",
          "type": "address"
        },
        {
          "internalType": "address",
          "name": "_player1",
          "type": "address"
        },
        {
          "internalType": "uint256",
          "name": "_baseAmount",
          "type": "uint256"
        },
        {
          "internalType": "uint256",
          "name": "rate",
          "type": "uint256"
        },
        {
          "internalType": "uint256",
          "name": "_id",
          "type": "uint256"
        }
      ],
      "name": "initRoom",
      "outputs": [],
      "stateMutability": "nonpayable",
      "type": "function"
    },
    {
      "inputs": [],
      "name": "player0",
      "outputs": [
        {
          "internalType": "address",
          "name": "",
          "type": "address"
        }
      ],
      "stateMutability": "view",
      "type": "function"
    },
    {
      "inputs": [],
      "name": "player1",
      "outputs": [
        {
          "internalType": "address",
          "name": "",
          "type": "address"
        }
      ],
      "stateMutability": "view",
      "type": "function"
    },
    {
      "inputs": [],
      "name": "receptionist",
      "outputs": [
        {
          "internalType": "address",
          "name": "",
          "type": "address"
        }
      ],
      "stateMutability": "view",
      "type": "function"
    },
    {
      "inputs": [],
      "name": "roomId",
      "outputs": [
        {
          "internalType": "uint256",
          "name": "",
          "type": "uint256"
        }
      ],
      "stateMutability": "view",
      "type": "function"
    },
    {
      "inputs": [],
      "name": "token",
      "outputs": [
        {
          "internalType": "contract IERC20",
          "name": "",
          "type": "address"
        }
      ],
      "stateMutability": "view",
      "type": "function"
    },
    {
      "inputs": [],
      "name": "winner",
      "outputs": [
        {
          "internalType": "address",
          "name": "",
          "type": "address"
        }
      ],
      "stateMutability": "view",
      "type": "function"
    },
    {
      "inputs": [],
      "name": "withdraw",
      "outputs": [],
      "stateMutability": "nonpayable",
      "type": "function"
    }
  ],
  "bytecode": "0x60806040523480156200001157600080fd5b506040516200103d3803806200103d8339818101604052810190620000379190620000f7565b600160008190555081600160006101000a81548173ffffffffffffffffffffffffffffffffffffffff021916908373ffffffffffffffffffffffffffffffffffffffff16021790555080600460006101000a81548173ffffffffffffffffffffffffffffffffffffffff021916908373ffffffffffffffffffffffffffffffffffffffff1602179055505050620001b4565b600081519050620000da8162000180565b92915050565b600081519050620000f1816200019a565b92915050565b600080604083850312156200010b57600080fd5b60006200011b85828601620000e0565b92505060206200012e85828601620000c9565b9150509250929050565b6000620001458262000160565b9050919050565b6000620001598262000138565b9050919050565b600073ffffffffffffffffffffffffffffffffffffffff82169050919050565b6200018b8162000138565b81146200019757600080fd5b50565b620001a5816200014c565b8114620001b157600080fd5b50565b610e7980620001c46000396000f3fe608060405234801561001057600080fd5b50600436106100cf5760003560e01c8063d30895e41161008c578063dfbf53ae11610066578063dfbf53ae146101b9578063efbe1c1c146101d7578063f954d0d9146101f5578063fc0c546a14610213576100cf565b8063d30895e414610161578063d42863ac1461017f578063da8e303b1461019d576100cf565b8063329f07af146100d4578063362b4aa5146100f2578063370158ea1461010e5780633ccfd60b1461012f5780634864d140146101395780638ade683c14610157575b600080fd5b6100dc610231565b6040516100e99190610af8565b60405180910390f35b61010c600480360381019061010791906109d6565b610257565b005b610116610391565b6040516101269493929190610b13565b60405180910390f35b6101376103ef565b005b610141610698565b60405161014e9190610bf7565b60405180910390f35b61015f6106a5565b005b610169610794565b6040516101769190610af8565b60405180910390f35b6101876107c1565b6040516101949190610af8565b60405180910390f35b6101b760048036038101906101b291906109ad565b6107ee565b005b6101c16108dd565b6040516101ce9190610af8565b60405180910390f35b6101df610903565b6040516101ec9190610b81565b60405180910390f35b6101fd610916565b60405161020a9190610bf7565b60405180910390f35b61021b61091c565b6040516102289190610b9c565b60405180910390f35b600460009054906101000a900473ffffffffffffffffffffffffffffffffffffffff1681565b600460009054906101000a900473ffffffffffffffffffffffffffffffffffffffff1673ffffffffffffffffffffffffffffffffffffffff163373ffffffffffffffffffffffffffffffffffffffff16146102e7576040517f08c379a00000000000000000000000000000000000000000000000000000000081526004016102de90610bd7565b60405180910390fd5b84600560000160006101000a81548173ffffffffffffffffffffffffffffffffffffffff021916908373ffffffffffffffffffffffffffffffffffffffff16021790555083600560010160006101000a81548173ffffffffffffffffffffffffffffffffffffffff021916908373ffffffffffffffffffffffffffffffffffffffff1602179055508260056002018190555081600560030181905550806003819055505050505050565b60058060000160009054906101000a900473ffffffffffffffffffffffffffffffffffffffff16908060010160009054906101000a900473ffffffffffffffffffffffffffffffffffffffff16908060020154908060030154905084565b600960009054906101000a900460ff1661043e576040517f08c379a000000000000000000000000000000000000000000000000000000000815260040161043590610bb7565b60405180910390fd5b600260009054906101000a900473ffffffffffffffffffffffffffffffffffffffff1673ffffffffffffffffffffffffffffffffffffffff163373ffffffffffffffffffffffffffffffffffffffff1614156105915760006104d960646104cb6005600301546104bd600260056002015461094290919063ffffffff16565b61094290919063ffffffff16565b61095890919063ffffffff16565b9050600160009054906101000a900473ffffffffffffffffffffffffffffffffffffffff1673ffffffffffffffffffffffffffffffffffffffff1663a9059cbb33836040518363ffffffff1660e01b8152600401610538929190610b58565b602060405180830381600087803b15801561055257600080fd5b505af1158015610566573d6000803e3d6000fd5b505050506040513d601f19601f8201168201806040525081019061058a9190610a4d565b5050610696565b60006105e260646105d460056003015460646105ad9190610cae565b6105c6600260056002015461094290919063ffffffff16565b61094290919063ffffffff16565b61095890919063ffffffff16565b9050600160009054906101000a900473ffffffffffffffffffffffffffffffffffffffff1673ffffffffffffffffffffffffffffffffffffffff1663a9059cbb33836040518363ffffffff1660e01b8152600401610641929190610b58565b602060405180830381600087803b15801561065b57600080fd5b505af115801561066f573d6000803e3d6000fd5b505050506040513d601f19601f820116820180604052508101906106939190610a4d565b50505b565b6000600560020154905090565b600460009054906101000a900473ffffffffffffffffffffffffffffffffffffffff1673ffffffffffffffffffffffffffffffffffffffff163373ffffffffffffffffffffffffffffffffffffffff1614610735576040517f08c379a000000000000000000000000000000000000000000000000000000000815260040161072c90610bd7565b60405180910390fd5b6000600960006101000a81548160ff0219169083151502179055506000600260006101000a81548173ffffffffffffffffffffffffffffffffffffffff021916908373ffffffffffffffffffffffffffffffffffffffff160217905550565b6000600560010160009054906101000a900473ffffffffffffffffffffffffffffffffffffffff16905090565b6000600560000160009054906101000a900473ffffffffffffffffffffffffffffffffffffffff16905090565b600460009054906101000a900473ffffffffffffffffffffffffffffffffffffffff1673ffffffffffffffffffffffffffffffffffffffff163373ffffffffffffffffffffffffffffffffffffffff161461087e576040517f08c379a000000000000000000000000000000000000000000000000000000000815260040161087590610bd7565b60405180910390fd5b80600260006101000a81548173ffffffffffffffffffffffffffffffffffffffff021916908373ffffffffffffffffffffffffffffffffffffffff1602179055506001600960006101000a81548160ff02191690831515021790555050565b600260009054906101000a900473ffffffffffffffffffffffffffffffffffffffff1681565b600960009054906101000a900460ff1681565b60035481565b600160009054906101000a900473ffffffffffffffffffffffffffffffffffffffff1681565b600081836109509190610c54565b905092915050565b600081836109669190610c23565b905092915050565b60008135905061097d81610dfe565b92915050565b60008151905061099281610e15565b92915050565b6000813590506109a781610e2c565b92915050565b6000602082840312156109bf57600080fd5b60006109cd8482850161096e565b91505092915050565b600080600080600060a086880312156109ee57600080fd5b60006109fc8882890161096e565b9550506020610a0d8882890161096e565b9450506040610a1e88828901610998565b9350506060610a2f88828901610998565b9250506080610a4088828901610998565b9150509295509295909350565b600060208284031215610a5f57600080fd5b6000610a6d84828501610983565b91505092915050565b610a7f81610ce2565b82525050565b610a8e81610cf4565b82525050565b610a9d81610d2a565b82525050565b6000610ab0601083610c12565b9150610abb82610dac565b602082019050919050565b6000610ad3601183610c12565b9150610ade82610dd5565b602082019050919050565b610af281610d20565b82525050565b6000602082019050610b0d6000830184610a76565b92915050565b6000608082019050610b286000830187610a76565b610b356020830186610a76565b610b426040830185610ae9565b610b4f6060830184610ae9565b95945050505050565b6000604082019050610b6d6000830185610a76565b610b7a6020830184610ae9565b9392505050565b6000602082019050610b966000830184610a85565b92915050565b6000602082019050610bb16000830184610a94565b92915050565b60006020820190508181036000830152610bd081610aa3565b9050919050565b60006020820190508181036000830152610bf081610ac6565b9050919050565b6000602082019050610c0c6000830184610ae9565b92915050565b600082825260208201905092915050565b6000610c2e82610d20565b9150610c3983610d20565b925082610c4957610c48610d7d565b5b828204905092915050565b6000610c5f82610d20565b9150610c6a83610d20565b9250817fffffffffffffffffffffffffffffffffffffffffffffffffffffffffffffffff0483118215151615610ca357610ca2610d4e565b5b828202905092915050565b6000610cb982610d20565b9150610cc483610d20565b925082821015610cd757610cd6610d4e565b5b828203905092915050565b6000610ced82610d00565b9050919050565b60008115159050919050565b600073ffffffffffffffffffffffffffffffffffffffff82169050919050565b6000819050919050565b6000610d3582610d3c565b9050919050565b6000610d4782610d00565b9050919050565b7f4e487b7100000000000000000000000000000000000000000000000000000000600052601160045260246000fd5b7f4e487b7100000000000000000000000000000000000000000000000000000000600052601260045260246000fd5b7f47616d65206973206e6f74206f76657200000000000000000000000000000000600082015250565b7f4e6f7420526563657074696f6e69737421000000000000000000000000000000600082015250565b610e0781610ce2565b8114610e1257600080fd5b50565b610e1e81610cf4565b8114610e2957600080fd5b50565b610e3581610d20565b8114610e4057600080fd5b5056fea26469706673582212207b43118190c43633967a26709e42379123c6034969dec2c4878772554ab7e7c964736f6c63430008040033",
  "linkReferences": {},
  "deployedLinkReferences": {}
}