{
  "_format": "hh-sol-artifact-1",
  "contractName": "Reception",
  "sourceName": "contracts/Reception.sol",
  "abi": [
    {
      "inputs": [
        {
          "internalType": "address",
          "name": "_devAddr",
          "type": "address"
        },
        {
          "internalType": "address",
          "name": "_token",
          "type": "address"
        }
      ],
      "stateMutability": "nonpayable",
      "type": "constructor"
    },
    {
      "anonymous": false,
      "inputs": [
        {
          "indexed": true,
          "internalType": "address",
          "name": "previousOwner",
          "type": "address"
        },
        {
          "indexed": true,
          "internalType": "address",
          "name": "newOwner",
          "type": "address"
        }
      ],
      "name": "OwnershipTransferred",
      "type": "event"
    },
    {
      "anonymous": false,
      "inputs": [
        {
          "indexed": false,
          "internalType": "uint256",
          "name": "roomId",
          "type": "uint256"
        }
      ],
      "name": "RoomCreated",
      "type": "event"
    },
    {
      "inputs": [
        {
          "internalType": "address",
          "name": "player0",
          "type": "address"
        },
        {
          "internalType": "address",
          "name": "player1",
          "type": "address"
        },
        {
          "internalType": "uint256",
          "name": "baseAmount",
          "type": "uint256"
        }
      ],
      "name": "createRoom",
      "outputs": [],
      "stateMutability": "nonpayable",
      "type": "function"
    },
    {
      "inputs": [
        {
          "internalType": "uint256",
          "name": "_index",
          "type": "uint256"
        },
        {
          "internalType": "address",
          "name": "_winner",
          "type": "address"
        }
      ],
      "name": "decideWinner",
      "outputs": [],
      "stateMutability": "nonpayable",
      "type": "function"
    },
    {
      "inputs": [],
      "name": "depositTime",
      "outputs": [
        {
          "internalType": "uint256",
          "name": "",
          "type": "uint256"
        }
      ],
      "stateMutability": "view",
      "type": "function"
    },
    {
      "inputs": [],
      "name": "devAddr",
      "outputs": [
        {
          "internalType": "address",
          "name": "",
          "type": "address"
        }
      ],
      "stateMutability": "view",
      "type": "function"
    },
    {
      "inputs": [],
      "name": "devFee",
      "outputs": [
        {
          "internalType": "uint256",
          "name": "",
          "type": "uint256"
        }
      ],
      "stateMutability": "view",
      "type": "function"
    },
    {
      "inputs": [],
      "name": "owner",
      "outputs": [
        {
          "internalType": "address",
          "name": "",
          "type": "address"
        }
      ],
      "stateMutability": "view",
      "type": "function"
    },
    {
      "inputs": [
        {
          "internalType": "uint256",
          "name": "_roomId",
          "type": "uint256"
        }
      ],
      "name": "rejoin",
      "outputs": [],
      "stateMutability": "nonpayable",
      "type": "function"
    },
    {
      "inputs": [],
      "name": "renounceOwnership",
      "outputs": [],
      "stateMutability": "nonpayable",
      "type": "function"
    },
    {
      "inputs": [
        {
          "internalType": "uint256",
          "name": "_index",
          "type": "uint256"
        }
      ],
      "name": "roomAtIndex",
      "outputs": [
        {
          "internalType": "address",
          "name": "",
          "type": "address"
        }
      ],
      "stateMutability": "view",
      "type": "function"
    },
    {
      "inputs": [],
      "name": "roomsLength",
      "outputs": [
        {
          "internalType": "uint256",
          "name": "",
          "type": "uint256"
        }
      ],
      "stateMutability": "view",
      "type": "function"
    },
    {
      "inputs": [
        {
          "internalType": "uint256",
          "name": "_depositTime",
          "type": "uint256"
        }
      ],
      "name": "setDepositTime",
      "outputs": [],
      "stateMutability": "nonpayable",
      "type": "function"
    },
    {
      "inputs": [
        {
          "internalType": "uint256",
          "name": "_fee",
          "type": "uint256"
        }
      ],
      "name": "setDevFee",
      "outputs": [],
      "stateMutability": "nonpayable",
      "type": "function"
    },
    {
      "inputs": [
        {
          "internalType": "uint256",
          "name": "_rate",
          "type": "uint256"
        }
      ],
      "name": "setWinnerRate",
      "outputs": [],
      "stateMutability": "nonpayable",
      "type": "function"
    },
    {
      "inputs": [],
      "name": "token",
      "outputs": [
        {
          "internalType": "contract IERC20",
          "name": "",
          "type": "address"
        }
      ],
      "stateMutability": "view",
      "type": "function"
    },
    {
      "inputs": [
        {
          "internalType": "address",
          "name": "newOwner",
          "type": "address"
        }
      ],
      "name": "transferOwnership",
      "outputs": [],
      "stateMutability": "nonpayable",
      "type": "function"
    },
    {
      "inputs": [
        {
          "internalType": "uint256",
          "name": "_roomId",
          "type": "uint256"
        }
      ],
      "name": "userDeposit",
      "outputs": [],
      "stateMutability": "nonpayable",
      "type": "function"
    },
    {
      "inputs": [],
      "name": "winnerRate",
      "outputs": [
        {
          "internalType": "uint256",
          "name": "",
          "type": "uint256"
        }
      ],
      "stateMutability": "view",
      "type": "function"
    }
  ],
  "bytecode": "0x6080604052605060055561012c6007553480156200001c57600080fd5b5060405162003047380380620030478339818101604052810190620000429190620001cf565b6200006262000056620000ec60201b60201c565b620000f460201b60201c565b81600360006101000a81548173ffffffffffffffffffffffffffffffffffffffff021916908373ffffffffffffffffffffffffffffffffffffffff16021790555080600460006101000a81548173ffffffffffffffffffffffffffffffffffffffff021916908373ffffffffffffffffffffffffffffffffffffffff16021790555050506200025e565b600033905090565b60008060009054906101000a900473ffffffffffffffffffffffffffffffffffffffff169050816000806101000a81548173ffffffffffffffffffffffffffffffffffffffff021916908373ffffffffffffffffffffffffffffffffffffffff1602179055508173ffffffffffffffffffffffffffffffffffffffff168173ffffffffffffffffffffffffffffffffffffffff167f8be0079c531659141344cd1fd0a4f28419497f9722a3daafe3b4186f6b6457e060405160405180910390a35050565b600081519050620001c98162000244565b92915050565b60008060408385031215620001e357600080fd5b6000620001f385828601620001b8565b92505060206200020685828601620001b8565b9150509250929050565b60006200021d8262000224565b9050919050565b600073ffffffffffffffffffffffffffffffffffffffff82169050919050565b6200024f8162000210565b81146200025b57600080fd5b50565b612dd9806200026e6000396000f3fe60806040523480156200001157600080fd5b5060043610620001245760003560e01c8063da09c72c11620000b1578063f2fde38b116200007b578063f2fde38b14620002b5578063f4f7fa0414620002d5578063f868e76614620002f5578063fc0c546a1462000315578063fe09bcb814620003375762000124565b8063da09c72c1462000233578063e4c871f51462000255578063e7b81ab61462000275578063f0f1cae814620002955762000124565b8063715018a611620000f3578063715018a614620001af5780638da5cb5b14620001bb5780639d65654e14620001dd578063c59877b414620002135762000124565b80630d3b150614620001295780631c75b6b2146200014b5780635e8a626e146200016b5780636827e764146200018d575b600080fd5b6200013362000359565b60405162000142919062001aa0565b60405180910390f35b6200016960048036038101906200016391906200168b565b6200035f565b005b62000175620003ec565b60405162000184919062001aa0565b60405180910390f35b62000197620003f2565b604051620001a6919062001aa0565b60405180910390f35b620001b9620003f8565b005b620001c562000489565b604051620001d491906200188f565b60405180910390f35b620001fb6004803603810190620001f591906200168b565b620004b2565b6040516200020a91906200188f565b60405180910390f35b6200023160048036038101906200022b91906200168b565b620004d1565b005b6200023d6200055e565b6040516200024c91906200188f565b60405180910390f35b6200027360048036038101906200026d91906200168b565b62000584565b005b6200029360048036038101906200028d9190620016e3565b62000bc9565b005b620002b36004803603810190620002ad91906200168b565b62000cda565b005b620002d36004803603810190620002cd9190620015b1565b62000dad565b005b620002f36004803603810190620002ed919062001609565b62000eb1565b005b6200031360048036038101906200030d91906200168b565b62000ff2565b005b6200031f620012cc565b6040516200032e919062001946565b60405180910390f35b62000341620012f2565b60405162000350919062001aa0565b60405180910390f35b60055481565b6200036962001305565b73ffffffffffffffffffffffffffffffffffffffff166200038962000489565b73ffffffffffffffffffffffffffffffffffffffff1614620003e2576040517f08c379a0000000000000000000000000000000000000000000000000000000008152600401620003d990620019d4565b60405180910390fd5b8060068190555050565b60075481565b60065481565b6200040262001305565b73ffffffffffffffffffffffffffffffffffffffff166200042262000489565b73ffffffffffffffffffffffffffffffffffffffff16146200047b576040517f08c379a00000000000000000000000000000000000000000000000000000000081526004016200047290620019d4565b60405180910390fd5b6200048760006200130d565b565b60008060009054906101000a900473ffffffffffffffffffffffffffffffffffffffff16905090565b6000620004ca826001620013d190919063ffffffff16565b9050919050565b620004db62001305565b73ffffffffffffffffffffffffffffffffffffffff16620004fb62000489565b73ffffffffffffffffffffffffffffffffffffffff161462000554576040517f08c379a00000000000000000000000000000000000000000000000000000000081526004016200054b90620019d4565b60405180910390fd5b8060078190555050565b600360009054906101000a900473ffffffffffffffffffffffffffffffffffffffff1681565b60006200059c826001620013d190919063ffffffff16565b90508073ffffffffffffffffffffffffffffffffffffffff16634864d1406040518163ffffffff1660e01b815260040160206040518083038186803b158015620005e557600080fd5b505afa158015620005fa573d6000803e3d6000fd5b505050506040513d601f19601f82011682018060405250810190620006209190620016b7565b600460009054906101000a900473ffffffffffffffffffffffffffffffffffffffff1673ffffffffffffffffffffffffffffffffffffffff166370a08231336040518263ffffffff1660e01b81526004016200067d91906200188f565b60206040518083038186803b1580156200069657600080fd5b505afa158015620006ab573d6000803e3d6000fd5b505050506040513d601f19601f82011682018060405250810190620006d19190620016b7565b101562000715576040517f08c379a00000000000000000000000000000000000000000000000000000000081526004016200070c9062001a18565b60405180910390fd5b8073ffffffffffffffffffffffffffffffffffffffff1663d42863ac6040518163ffffffff1660e01b815260040160206040518083038186803b1580156200075c57600080fd5b505afa15801562000771573d6000803e3d6000fd5b505050506040513d601f19601f82011682018060405250810190620007979190620015dd565b73ffffffffffffffffffffffffffffffffffffffff163373ffffffffffffffffffffffffffffffffffffffff1614806200087d57508073ffffffffffffffffffffffffffffffffffffffff1663d30895e46040518163ffffffff1660e01b815260040160206040518083038186803b1580156200081357600080fd5b505afa15801562000828573d6000803e3d6000fd5b505050506040513d601f19601f820116820180604052508101906200084e9190620015dd565b73ffffffffffffffffffffffffffffffffffffffff163373ffffffffffffffffffffffffffffffffffffffff16145b620008bf576040517f08c379a0000000000000000000000000000000000000000000000000000000008152600401620008b690620019f6565b60405180910390fd5b60006006541115620009e957600460009054906101000a900473ffffffffffffffffffffffffffffffffffffffff1673ffffffffffffffffffffffffffffffffffffffff166323b872dd33600360009054906101000a900473ffffffffffffffffffffffffffffffffffffffff166006546040518463ffffffff1660e01b81526004016200095093929190620018ac565b602060405180830381600087803b1580156200096b57600080fd5b505af115801562000980573d6000803e3d6000fd5b505050506040513d601f19601f82011682018060405250810190620009a691906200165f565b620009e8576040517f08c379a0000000000000000000000000000000000000000000000000000000008152600401620009df9062001a3a565b60405180910390fd5b5b600460009054906101000a900473ffffffffffffffffffffffffffffffffffffffff1673ffffffffffffffffffffffffffffffffffffffff166323b872dd33838473ffffffffffffffffffffffffffffffffffffffff16634864d1406040518163ffffffff1660e01b815260040160206040518083038186803b15801562000a7057600080fd5b505afa15801562000a85573d6000803e3d6000fd5b505050506040513d601f19601f8201168201806040525081019062000aab9190620016b7565b6040518463ffffffff1660e01b815260040162000acb93929190620018ac565b602060405180830381600087803b15801562000ae657600080fd5b505af115801562000afb573d6000803e3d6000fd5b505050506040513d601f19601f8201168201806040525081019062000b2191906200165f565b62000b63576040517f08c379a000000000000000000000000000000000000000000000000000000000815260040162000b5a9062001a7e565b60405180910390fd5b8073ffffffffffffffffffffffffffffffffffffffff16638ade683c6040518163ffffffff1660e01b8152600401600060405180830381600087803b15801562000bac57600080fd5b505af115801562000bc1573d6000803e3d6000fd5b505050505050565b62000bd362001305565b73ffffffffffffffffffffffffffffffffffffffff1662000bf362000489565b73ffffffffffffffffffffffffffffffffffffffff161462000c4c576040517f08c379a000000000000000000000000000000000000000000000000000000000815260040162000c4390620019d4565b60405180910390fd5b600062000c64836001620013d190919063ffffffff16565b90508073ffffffffffffffffffffffffffffffffffffffff1663da8e303b836040518263ffffffff1660e01b815260040162000ca191906200188f565b600060405180830381600087803b15801562000cbc57600080fd5b505af115801562000cd1573d6000803e3d6000fd5b50505050505050565b62000ce462001305565b73ffffffffffffffffffffffffffffffffffffffff1662000d0462000489565b73ffffffffffffffffffffffffffffffffffffffff161462000d5d576040517f08c379a000000000000000000000000000000000000000000000000000000000815260040162000d5490620019d4565b60405180910390fd5b6032811162000da3576040517f08c379a000000000000000000000000000000000000000000000000000000000815260040162000d9a9062001a5c565b60405180910390fd5b8060058190555050565b62000db762001305565b73ffffffffffffffffffffffffffffffffffffffff1662000dd762000489565b73ffffffffffffffffffffffffffffffffffffffff161462000e30576040517f08c379a000000000000000000000000000000000000000000000000000000000815260040162000e2790620019d4565b60405180910390fd5b600073ffffffffffffffffffffffffffffffffffffffff168173ffffffffffffffffffffffffffffffffffffffff16141562000ea3576040517f08c379a000000000000000000000000000000000000000000000000000000000815260040162000e9a9062001990565b60405180910390fd5b62000eae816200130d565b50565b6000600460009054906101000a900473ffffffffffffffffffffffffffffffffffffffff163060405162000ee59062001530565b62000ef292919062001963565b604051809103906000f08015801562000f0f573d6000803e3d6000fd5b509050600062000f206001620013ed565b905062000f388260016200140490919063ffffffff16565b508173ffffffffffffffffffffffffffffffffffffffff1663362b4aa5868686600554866040518663ffffffff1660e01b815260040162000f7e959493929190620018e9565b600060405180830381600087803b15801562000f9957600080fd5b505af115801562000fae573d6000803e3d6000fd5b505050507ff0cdcb414607ea068cd88e5e8c412a4e8d98bf75a67e0566830055371acda12c8160405162000fe3919062001aa0565b60405180910390a15050505050565b60006200100a826001620013d190919063ffffffff16565b905060008173ffffffffffffffffffffffffffffffffffffffff16634864d1406040518163ffffffff1660e01b815260040160206040518083038186803b1580156200105557600080fd5b505afa1580156200106a573d6000803e3d6000fd5b505050506040513d601f19601f82011682018060405250810190620010909190620016b7565b905060006006541115620011ce5760065481620010ae919062001ace565b9050600460009054906101000a900473ffffffffffffffffffffffffffffffffffffffff1673ffffffffffffffffffffffffffffffffffffffff166323b872dd33600360009054906101000a900473ffffffffffffffffffffffffffffffffffffffff166006546040518463ffffffff1660e01b81526004016200113593929190620018ac565b602060405180830381600087803b1580156200115057600080fd5b505af115801562001165573d6000803e3d6000fd5b505050506040513d601f19601f820116820180604052508101906200118b91906200165f565b620011cd576040517f08c379a0000000000000000000000000000000000000000000000000000000008152600401620011c490620019b2565b60405180910390fd5b5b600460009054906101000a900473ffffffffffffffffffffffffffffffffffffffff1673ffffffffffffffffffffffffffffffffffffffff166323b872dd3384846040518463ffffffff1660e01b81526004016200122f93929190620018ac565b602060405180830381600087803b1580156200124a57600080fd5b505af11580156200125f573d6000803e3d6000fd5b505050506040513d601f19601f820116820180604052508101906200128591906200165f565b620012c7576040517f08c379a0000000000000000000000000000000000000000000000000000000008152600401620012be9062001a7e565b60405180910390fd5b505050565b600460009054906101000a900473ffffffffffffffffffffffffffffffffffffffff1681565b6000620013006001620013ed565b905090565b600033905090565b60008060009054906101000a900473ffffffffffffffffffffffffffffffffffffffff169050816000806101000a81548173ffffffffffffffffffffffffffffffffffffffff021916908373ffffffffffffffffffffffffffffffffffffffff1602179055508173ffffffffffffffffffffffffffffffffffffffff168173ffffffffffffffffffffffffffffffffffffffff167f8be0079c531659141344cd1fd0a4f28419497f9722a3daafe3b4186f6b6457e060405160405180910390a35050565b6000620013e2836000018362001436565b60001c905092915050565b6000620013fd8260000162001488565b9050919050565b60006200142e836000018373ffffffffffffffffffffffffffffffffffffffff1660001b62001499565b905092915050565b600082600001828154811062001475577f4e487b7100000000000000000000000000000000000000000000000000000000600052603260045260246000fd5b9060005260206000200154905092915050565b600081600001805490509050919050565b6000620014a783836200150d565b6200150257826000018290806001815401808255809150506001900390600052602060002001600090919091909150558260000180549050836001016000848152602001908152602001600020819055506001905062001507565b600090505b92915050565b600080836001016000848152602001908152602001600020541415905092915050565b61103d8062001d6783390190565b6000813590506200154f8162001d18565b92915050565b600081519050620015668162001d18565b92915050565b6000815190506200157d8162001d32565b92915050565b600081359050620015948162001d4c565b92915050565b600081519050620015ab8162001d4c565b92915050565b600060208284031215620015c457600080fd5b6000620015d4848285016200153e565b91505092915050565b600060208284031215620015f057600080fd5b6000620016008482850162001555565b91505092915050565b6000806000606084860312156200161f57600080fd5b60006200162f868287016200153e565b935050602062001642868287016200153e565b9250506040620016558682870162001583565b9150509250925092565b6000602082840312156200167257600080fd5b600062001682848285016200156c565b91505092915050565b6000602082840312156200169e57600080fd5b6000620016ae8482850162001583565b91505092915050565b600060208284031215620016ca57600080fd5b6000620016da848285016200159a565b91505092915050565b60008060408385031215620016f757600080fd5b6000620017078582860162001583565b92505060206200171a858286016200153e565b9150509250929050565b6200172f8162001b09565b82525050565b620017408162001b53565b82525050565b60006200175560268362001abd565b9150620017628262001baa565b604082019050919050565b60006200177c600c8362001abd565b9150620017898262001bf9565b602082019050919050565b6000620017a360208362001abd565b9150620017b08262001c22565b602082019050919050565b6000620017ca600e8362001abd565b9150620017d78262001c4b565b602082019050919050565b6000620017f160148362001abd565b9150620017fe8262001c74565b602082019050919050565b60006200181860108362001abd565b9150620018258262001c9d565b602082019050919050565b60006200183f600b8362001abd565b91506200184c8262001cc6565b602082019050919050565b60006200186660148362001abd565b9150620018738262001cef565b602082019050919050565b620018898162001b49565b82525050565b6000602082019050620018a6600083018462001724565b92915050565b6000606082019050620018c3600083018662001724565b620018d2602083018562001724565b620018e160408301846200187e565b949350505050565b600060a08201905062001900600083018862001724565b6200190f602083018762001724565b6200191e60408301866200187e565b6200192d60608301856200187e565b6200193c60808301846200187e565b9695505050505050565b60006020820190506200195d600083018462001735565b92915050565b60006040820190506200197a600083018562001735565b62001989602083018462001724565b9392505050565b60006020820190508181036000830152620019ab8162001746565b9050919050565b60006020820190508181036000830152620019cd816200176d565b9050919050565b60006020820190508181036000830152620019ef8162001794565b9050919050565b6000602082019050818103600083015262001a1181620017bb565b9050919050565b6000602082019050818103600083015262001a3381620017e2565b9050919050565b6000602082019050818103600083015262001a558162001809565b9050919050565b6000602082019050818103600083015262001a778162001830565b9050919050565b6000602082019050818103600083015262001a998162001857565b9050919050565b600060208201905062001ab760008301846200187e565b92915050565b600082825260208201905092915050565b600062001adb8262001b49565b915062001ae88362001b49565b92508282101562001afe5762001afd62001b7b565b5b828203905092915050565b600062001b168262001b29565b9050919050565b60008115159050919050565b600073ffffffffffffffffffffffffffffffffffffffff82169050919050565b6000819050919050565b600062001b608262001b67565b9050919050565b600062001b748262001b29565b9050919050565b7f4e487b7100000000000000000000000000000000000000000000000000000000600052601160045260246000fd5b7f4f776e61626c653a206e6577206f776e657220697320746865207a65726f206160008201527f6464726573730000000000000000000000000000000000000000000000000000602082015250565b7f4665653a206661696c6564210000000000000000000000000000000000000000600082015250565b7f4f776e61626c653a2063616c6c6572206973206e6f7420746865206f776e6572600082015250565b7f496e76616c696420506c61796572000000000000000000000000000000000000600082015250565b7f496e73756666696369656e742042616c616e6365000000000000000000000000600082015250565b7f506179204665653a206661696c65642100000000000000000000000000000000600082015250565b7f57726f6e67207261746521000000000000000000000000000000000000000000600082015250565b7f63616e2774206465706f73697420746f6b656e73000000000000000000000000600082015250565b62001d238162001b09565b811462001d2f57600080fd5b50565b62001d3d8162001b1d565b811462001d4957600080fd5b50565b62001d578162001b49565b811462001d6357600080fd5b5056fe60806040523480156200001157600080fd5b506040516200103d3803806200103d8339818101604052810190620000379190620000f7565b600160008190555081600160006101000a81548173ffffffffffffffffffffffffffffffffffffffff021916908373ffffffffffffffffffffffffffffffffffffffff16021790555080600460006101000a81548173ffffffffffffffffffffffffffffffffffffffff021916908373ffffffffffffffffffffffffffffffffffffffff1602179055505050620001b4565b600081519050620000da8162000180565b92915050565b600081519050620000f1816200019a565b92915050565b600080604083850312156200010b57600080fd5b60006200011b85828601620000e0565b92505060206200012e85828601620000c9565b9150509250929050565b6000620001458262000160565b9050919050565b6000620001598262000138565b9050919050565b600073ffffffffffffffffffffffffffffffffffffffff82169050919050565b6200018b8162000138565b81146200019757600080fd5b50565b620001a5816200014c565b8114620001b157600080fd5b50565b610e7980620001c46000396000f3fe608060405234801561001057600080fd5b50600436106100cf5760003560e01c8063d30895e41161008c578063dfbf53ae11610066578063dfbf53ae146101b9578063efbe1c1c146101d7578063f954d0d9146101f5578063fc0c546a14610213576100cf565b8063d30895e414610161578063d42863ac1461017f578063da8e303b1461019d576100cf565b8063329f07af146100d4578063362b4aa5146100f2578063370158ea1461010e5780633ccfd60b1461012f5780634864d140146101395780638ade683c14610157575b600080fd5b6100dc610231565b6040516100e99190610af8565b60405180910390f35b61010c600480360381019061010791906109d6565b610257565b005b610116610391565b6040516101269493929190610b13565b60405180910390f35b6101376103ef565b005b610141610698565b60405161014e9190610bf7565b60405180910390f35b61015f6106a5565b005b610169610794565b6040516101769190610af8565b60405180910390f35b6101876107c1565b6040516101949190610af8565b60405180910390f35b6101b760048036038101906101b291906109ad565b6107ee565b005b6101c16108dd565b6040516101ce9190610af8565b60405180910390f35b6101df610903565b6040516101ec9190610b81565b60405180910390f35b6101fd610916565b60405161020a9190610bf7565b60405180910390f35b61021b61091c565b6040516102289190610b9c565b60405180910390f35b600460009054906101000a900473ffffffffffffffffffffffffffffffffffffffff1681565b600460009054906101000a900473ffffffffffffffffffffffffffffffffffffffff1673ffffffffffffffffffffffffffffffffffffffff163373ffffffffffffffffffffffffffffffffffffffff16146102e7576040517f08c379a00000000000000000000000000000000000000000000000000000000081526004016102de90610bd7565b60405180910390fd5b84600560000160006101000a81548173ffffffffffffffffffffffffffffffffffffffff021916908373ffffffffffffffffffffffffffffffffffffffff16021790555083600560010160006101000a81548173ffffffffffffffffffffffffffffffffffffffff021916908373ffffffffffffffffffffffffffffffffffffffff1602179055508260056002018190555081600560030181905550806003819055505050505050565b60058060000160009054906101000a900473ffffffffffffffffffffffffffffffffffffffff16908060010160009054906101000a900473ffffffffffffffffffffffffffffffffffffffff16908060020154908060030154905084565b600960009054906101000a900460ff1661043e576040517f08c379a000000000000000000000000000000000000000000000000000000000815260040161043590610bb7565b60405180910390fd5b600260009054906101000a900473ffffffffffffffffffffffffffffffffffffffff1673ffffffffffffffffffffffffffffffffffffffff163373ffffffffffffffffffffffffffffffffffffffff1614156105915760006104d960646104cb6005600301546104bd600260056002015461094290919063ffffffff16565b61094290919063ffffffff16565b61095890919063ffffffff16565b9050600160009054906101000a900473ffffffffffffffffffffffffffffffffffffffff1673ffffffffffffffffffffffffffffffffffffffff1663a9059cbb33836040518363ffffffff1660e01b8152600401610538929190610b58565b602060405180830381600087803b15801561055257600080fd5b505af1158015610566573d6000803e3d6000fd5b505050506040513d601f19601f8201168201806040525081019061058a9190610a4d565b5050610696565b60006105e260646105d460056003015460646105ad9190610cae565b6105c6600260056002015461094290919063ffffffff16565b61094290919063ffffffff16565b61095890919063ffffffff16565b9050600160009054906101000a900473ffffffffffffffffffffffffffffffffffffffff1673ffffffffffffffffffffffffffffffffffffffff1663a9059cbb33836040518363ffffffff1660e01b8152600401610641929190610b58565b602060405180830381600087803b15801561065b57600080fd5b505af115801561066f573d6000803e3d6000fd5b505050506040513d601f19601f820116820180604052508101906106939190610a4d565b50505b565b6000600560020154905090565b600460009054906101000a900473ffffffffffffffffffffffffffffffffffffffff1673ffffffffffffffffffffffffffffffffffffffff163373ffffffffffffffffffffffffffffffffffffffff1614610735576040517f08c379a000000000000000000000000000000000000000000000000000000000815260040161072c90610bd7565b60405180910390fd5b6000600960006101000a81548160ff0219169083151502179055506000600260006101000a81548173ffffffffffffffffffffffffffffffffffffffff021916908373ffffffffffffffffffffffffffffffffffffffff160217905550565b6000600560010160009054906101000a900473ffffffffffffffffffffffffffffffffffffffff16905090565b6000600560000160009054906101000a900473ffffffffffffffffffffffffffffffffffffffff16905090565b600460009054906101000a900473ffffffffffffffffffffffffffffffffffffffff1673ffffffffffffffffffffffffffffffffffffffff163373ffffffffffffffffffffffffffffffffffffffff161461087e576040517f08c379a000000000000000000000000000000000000000000000000000000000815260040161087590610bd7565b60405180910390fd5b80600260006101000a81548173ffffffffffffffffffffffffffffffffffffffff021916908373ffffffffffffffffffffffffffffffffffffffff1602179055506001600960006101000a81548160ff02191690831515021790555050565b600260009054906101000a900473ffffffffffffffffffffffffffffffffffffffff1681565b600960009054906101000a900460ff1681565b60035481565b600160009054906101000a900473ffffffffffffffffffffffffffffffffffffffff1681565b600081836109509190610c54565b905092915050565b600081836109669190610c23565b905092915050565b60008135905061097d81610dfe565b92915050565b60008151905061099281610e15565b92915050565b6000813590506109a781610e2c565b92915050565b6000602082840312156109bf57600080fd5b60006109cd8482850161096e565b91505092915050565b600080600080600060a086880312156109ee57600080fd5b60006109fc8882890161096e565b9550506020610a0d8882890161096e565b9450506040610a1e88828901610998565b9350506060610a2f88828901610998565b9250506080610a4088828901610998565b9150509295509295909350565b600060208284031215610a5f57600080fd5b6000610a6d84828501610983565b91505092915050565b610a7f81610ce2565b82525050565b610a8e81610cf4565b82525050565b610a9d81610d2a565b82525050565b6000610ab0601083610c12565b9150610abb82610dac565b602082019050919050565b6000610ad3601183610c12565b9150610ade82610dd5565b602082019050919050565b610af281610d20565b82525050565b6000602082019050610b0d6000830184610a76565b92915050565b6000608082019050610b286000830187610a76565b610b356020830186610a76565b610b426040830185610ae9565b610b4f6060830184610ae9565b95945050505050565b6000604082019050610b6d6000830185610a76565b610b7a6020830184610ae9565b9392505050565b6000602082019050610b966000830184610a85565b92915050565b6000602082019050610bb16000830184610a94565b92915050565b60006020820190508181036000830152610bd081610aa3565b9050919050565b60006020820190508181036000830152610bf081610ac6565b9050919050565b6000602082019050610c0c6000830184610ae9565b92915050565b600082825260208201905092915050565b6000610c2e82610d20565b9150610c3983610d20565b925082610c4957610c48610d7d565b5b828204905092915050565b6000610c5f82610d20565b9150610c6a83610d20565b9250817fffffffffffffffffffffffffffffffffffffffffffffffffffffffffffffffff0483118215151615610ca357610ca2610d4e565b5b828202905092915050565b6000610cb982610d20565b9150610cc483610d20565b925082821015610cd757610cd6610d4e565b5b828203905092915050565b6000610ced82610d00565b9050919050565b60008115159050919050565b600073ffffffffffffffffffffffffffffffffffffffff82169050919050565b6000819050919050565b6000610d3582610d3c565b9050919050565b6000610d4782610d00565b9050919050565b7f4e487b7100000000000000000000000000000000000000000000000000000000600052601160045260246000fd5b7f4e487b7100000000000000000000000000000000000000000000000000000000600052601260045260246000fd5b7f47616d65206973206e6f74206f76657200000000000000000000000000000000600082015250565b7f4e6f7420526563657074696f6e69737421000000000000000000000000000000600082015250565b610e0781610ce2565b8114610e1257600080fd5b50565b610e1e81610cf4565b8114610e2957600080fd5b50565b610e3581610d20565b8114610e4057600080fd5b5056fea26469706673582212207b43118190c43633967a26709e42379123c6034969dec2c4878772554ab7e7c964736f6c63430008040033a2646970667358221220a9aaa76ceb1f2b007436fba27859b62c195960d7e7435d72940d564b48ce12ea64736f6c63430008040033",
  "linkReferences": {},
  "deployedLinkReferences": {}
}